{
    "address": "0x194CDd095358eBAA5FD02913e5220E2cd7600713",
    "abi": [
        {
            "inputs": [],
            "stateMutability": "nonpayable",
            "type": "constructor"
        },
        {
            "inputs": [],
            "name": "IdAlreadyGenerated",
            "type": "error"
        },
        {
            "inputs": [],
            "name": "IdOverflow",
            "type": "error"
        },
        {
            "inputs": [],
            "name": "InvalidAddress",
            "type": "error"
        },
        {
            "inputs": [],
            "name": "InvalidId",
            "type": "error"
        },
        {
            "inputs": [],
            "name": "NoAddressFound",
            "type": "error"
        },
        {
            "inputs": [],
            "name": "NoIdGenerated",
            "type": "error"
        },
        {
            "inputs": [
                {
                    "internalType": "address",
                    "name": "owner",
                    "type": "address"
                }
            ],
            "name": "OwnableInvalidOwner",
            "type": "error"
        },
        {
            "inputs": [
                {
                    "internalType": "address",
                    "name": "account",
                    "type": "address"
                }
            ],
            "name": "OwnableUnauthorizedAccount",
            "type": "error"
        },
        {
            "anonymous": false,
            "inputs": [
                {
                    "indexed": true,
                    "internalType": "address",
                    "name": "user",
                    "type": "address"
                },
                {
                    "indexed": true,
                    "internalType": "uint256",
                    "name": "id",
                    "type": "uint256"
                }
            ],
            "name": "IdGenerated",
            "type": "event"
        },
        {
            "anonymous": false,
            "inputs": [
                {
                    "indexed": true,
                    "internalType": "address",
                    "name": "previousOwner",
                    "type": "address"
                },
                {
                    "indexed": true,
                    "internalType": "address",
                    "name": "newOwner",
                    "type": "address"
                }
            ],
            "name": "OwnershipTransferStarted",
            "type": "event"
        },
        {
            "anonymous": false,
            "inputs": [
                {
                    "indexed": true,
                    "internalType": "address",
                    "name": "previousOwner",
                    "type": "address"
                },
                {
                    "indexed": true,
                    "internalType": "address",
                    "name": "newOwner",
                    "type": "address"
                }
            ],
            "name": "OwnershipTransferred",
            "type": "event"
        },
        {
            "inputs": [],
            "name": "acceptOwnership",
            "outputs": [],
            "stateMutability": "nonpayable",
            "type": "function"
        },
        {
            "inputs": [
                {
                    "internalType": "address",
                    "name": "",
                    "type": "address"
                }
            ],
            "name": "addressToId",
            "outputs": [
                {
                    "internalType": "uint256",
                    "name": "",
                    "type": "uint256"
                }
            ],
            "stateMutability": "view",
            "type": "function"
        },
        {
            "inputs": [],
            "name": "generateId",
            "outputs": [
                {
                    "internalType": "uint256",
                    "name": "",
                    "type": "uint256"
                }
            ],
            "stateMutability": "nonpayable",
            "type": "function"
        },
        {
            "inputs": [
                {
                    "internalType": "uint256",
                    "name": "_id",
                    "type": "uint256"
                }
            ],
            "name": "getAddr",
            "outputs": [
                {
                    "internalType": "address",
                    "name": "",
                    "type": "address"
                }
            ],
            "stateMutability": "view",
            "type": "function"
        },
        {
            "inputs": [
                {
                    "internalType": "address",
                    "name": "_addr",
                    "type": "address"
                }
            ],
            "name": "getId",
            "outputs": [
                {
                    "internalType": "uint256",
                    "name": "",
                    "type": "uint256"
                }
            ],
            "stateMutability": "view",
            "type": "function"
        },
        {
            "inputs": [],
            "name": "owner",
            "outputs": [
                {
                    "internalType": "address",
                    "name": "",
                    "type": "address"
                }
            ],
            "stateMutability": "view",
            "type": "function"
        },
        {
            "inputs": [],
            "name": "pendingOwner",
            "outputs": [
                {
                    "internalType": "address",
                    "name": "",
                    "type": "address"
                }
            ],
            "stateMutability": "view",
            "type": "function"
        },
        {
            "inputs": [],
            "name": "renounceOwnership",
            "outputs": [],
            "stateMutability": "nonpayable",
            "type": "function"
        },
        {
            "inputs": [
                {
                    "internalType": "address",
                    "name": "_addr",
                    "type": "address"
                }
            ],
            "name": "resetIdForAddress",
            "outputs": [],
            "stateMutability": "nonpayable",
            "type": "function"
        },
        {
            "inputs": [
                {
                    "internalType": "address",
                    "name": "newOwner",
                    "type": "address"
                }
            ],
            "name": "transferOwnership",
            "outputs": [],
            "stateMutability": "nonpayable",
            "type": "function"
        }
    ],
    "transactionHash": "0x71809251b8de0dd854007f37b7eb79e150cd4a1ca487a665c3e7c880e917182a",
    "args": [],
    "numDeployments": 1,
    "solcInputHash": "e7620ba6b2405fbbc9f9ba0f0597ee57",
    "bytecode": "0x60806040526001600455348015610014575f80fd5b50338061003a57604051631e4fbdf760e01b81525f600482015260240160405180910390fd5b610043816100f1565b506100e76100e2604080516080810182525f808252602082018190529181018290526060810191909152506040805160808101825273fee8407e2f5e3ee68ad77cae98c434e637f516e5815273687408ab54661ba0b4aef3a44156c616c6955e07602082015273fb03be574d14c256d56f09a198b586bdfc0a9de291810191909152739d6891a6240d6130c54ae243d8005063d05fe14b606082015290565b61010d565b6001600455610238565b600180546001600160a01b031916905561010a816101e9565b50565b80517fed8d60e34876f751cc8b014c560745351147d9de11b9347c854e881b128ea60080546001600160a01b03199081166001600160a01b039384161790915560208301517fed8d60e34876f751cc8b014c560745351147d9de11b9347c854e881b128ea6018054831691841691909117905560408301517fed8d60e34876f751cc8b014c560745351147d9de11b9347c854e881b128ea6028054831691841691909117905560608301517fed8d60e34876f751cc8b014c560745351147d9de11b9347c854e881b128ea6038054909216921691909117905550565b5f80546001600160a01b038381166001600160a01b0319831681178455604051919092169283917f8be0079c531659141344cd1fd0a4f28419497f9722a3daafe3b4186f6b6457e09190a35050565b610577806102455f395ff3fe608060405234801561000f575f80fd5b50600436106100b9575f3560e01c80638da5cb5b11610072578063d81f84b711610058578063d81f84b714610153578063e30c397814610166578063f2fde38b14610177575f80fd5b80638da5cb5b14610110578063cb0e0d7d14610134575f80fd5b80636f8dcb3d116100a25780636f8dcb3d146100f8578063715018a61461010057806379ba509714610108575f80fd5b80631998e200146100bd57806365f68c89146100d2575b5f80fd5b6100d06100cb366004610502565b61018a565b005b6100e56100e0366004610502565b610201565b6040519081526020015b60405180910390f35b6100e561027b565b6100d061033e565b6100d0610351565b5f546001600160a01b03165b6040516001600160a01b0390911681526020016100ef565b6100e5610142366004610502565b60026020525f908152604090205481565b61011c61016136600461052f565b61039a565b6001546001600160a01b031661011c565b6100d0610185366004610502565b610403565b610192610473565b6001600160a01b0381165f90815260026020526040812054908190036101cb576040516303aebe7360e01b815260040160405180910390fd5b6001600160a01b039091165f908152600260209081526040808320839055928252600390522080546001600160a01b0319169055565b5f6001600160a01b0382166102295760405163e6c4247b60e01b815260040160405180910390fd5b6001600160a01b0382165f908152600260205260408120549003610260576040516303aebe7360e01b815260040160405180910390fd5b506001600160a01b03165f9081526002602052604090205490565b335f90815260026020526040812054156102a8576040516354c5785d60e11b815260040160405180910390fd5b336102c65760405163e6c4247b60e01b815260040160405180910390fd5b60048054335f8181526002602090815260408083208590558483526003909152812080546001600160a01b031916909217909155825491929061030883610546565b9091555050604051819033907f633a062bfc4338338540167878dec92e855f952c8fb099a9ffc4f0728d721c86905f90a3919050565b610346610473565b61034f5f61049f565b565b60015433906001600160a01b0316811461038e5760405163118cdaa760e01b81526001600160a01b03821660048201526024015b60405180910390fd5b6103978161049f565b50565b5f8115806103aa57506004548210155b156103c857604051631bf4348160e31b815260040160405180910390fd5b5f828152600360205260409020546001600160a01b0316806103fd576040516371678f1560e11b815260040160405180910390fd5b92915050565b61040b610473565b600180546001600160a01b0383166001600160a01b0319909116811790915561043b5f546001600160a01b031690565b6001600160a01b03167f38d16b8cac22d99fc7c124b9cd0de2d3fa1faef420bfe791d8c362d765e2270060405160405180910390a350565b5f546001600160a01b0316331461034f5760405163118cdaa760e01b8152336004820152602401610385565b600180546001600160a01b0319169055610397815f80546001600160a01b038381166001600160a01b0319831681178455604051919092169283917f8be0079c531659141344cd1fd0a4f28419497f9722a3daafe3b4186f6b6457e09190a35050565b5f60208284031215610512575f80fd5b81356001600160a01b0381168114610528575f80fd5b9392505050565b5f6020828403121561053f575f80fd5b5035919050565b5f6001820161056357634e487b7160e01b5f52601160045260245ffd5b506001019056fea164736f6c6343000818000a",
    "devdoc": {
        "details": "Inherits from Ownable2Step for secure ownership transfer",
        "errors": {
            "OwnableInvalidOwner(address)": [
                {
                    "details": "The owner is not a valid owner account. (eg. `address(0)`)"
                }
            ],
            "OwnableUnauthorizedAccount(address)": [
                {
                    "details": "The caller account is not authorized to perform an operation."
                }
            ]
        },
        "kind": "dev",
        "methods": {
            "acceptOwnership()": {
                "details": "The new owner accepts the ownership transfer."
            },
            "owner()": {
                "details": "Returns the address of the current owner."
            },
            "pendingOwner()": {
                "details": "Returns the address of the pending owner."
            },
            "renounceOwnership()": {
                "details": "Leaves the contract without owner. It will not be possible to call `onlyOwner` functions. Can only be called by the current owner. NOTE: Renouncing ownership will leave the contract without an owner, thereby disabling any functionality that is only available to the owner."
            },
            "transferOwnership(address)": {
                "details": "Starts the ownership transfer of the contract to a new account. Replaces the pending transfer if there is one. Can only be called by the current owner. Setting `newOwner` to the zero address is allowed; this can be used to cancel an initiated ownership transfer."
            }
        },
        "stateVariables": {
            "idToAddress": {
                "details": "Maps unique IDs back to user addresses"
            }
        },
        "version": 1
    },
    "userdoc": {
        "kind": "user",
        "methods": {
            "addressToId(address)": {
                "notice": "Maps user addresses to their unique IDs"
            }
        },
        "notice": "Manages unique ID mappings between addresses and sequential IDs",
        "version": 1
    },
    "storageLayout": {
        "storage": [
            {
                "astId": 387,
                "contract": "contracts/IdMapping.sol:IdMapping",
                "label": "_owner",
                "offset": 0,
                "slot": "0",
                "type": "t_address"
            },
            {
                "astId": 535,
                "contract": "contracts/IdMapping.sol:IdMapping",
                "label": "_pendingOwner",
                "offset": 0,
                "slot": "1",
                "type": "t_address"
            },
            {
                "astId": 996,
                "contract": "contracts/IdMapping.sol:IdMapping",
                "label": "addressToId",
                "offset": 0,
                "slot": "2",
                "type": "t_mapping(t_address,t_uint256)"
            },
            {
                "astId": 1001,
                "contract": "contracts/IdMapping.sol:IdMapping",
                "label": "idToAddress",
                "offset": 0,
                "slot": "3",
                "type": "t_mapping(t_uint256,t_address)"
            },
            {
                "astId": 1004,
                "contract": "contracts/IdMapping.sol:IdMapping",
                "label": "nextId",
                "offset": 0,
                "slot": "4",
                "type": "t_uint256"
            }
        ],
        "types": {
            "t_address": {
                "encoding": "inplace",
                "label": "address",
                "numberOfBytes": "20"
            },
            "t_mapping(t_address,t_uint256)": {
                "encoding": "mapping",
                "key": "t_address",
                "label": "mapping(address => uint256)",
                "numberOfBytes": "32",
                "value": "t_uint256"
            },
            "t_mapping(t_uint256,t_address)": {
                "encoding": "mapping",
                "key": "t_uint256",
                "label": "mapping(uint256 => address)",
                "numberOfBytes": "32",
                "value": "t_address"
            },
            "t_uint256": {
                "encoding": "inplace",
                "label": "uint256",
                "numberOfBytes": "32"
            }
        }
    }
}